:020000040800F2
:10000000D0BD0020C10B0008010C0008030C000843
:100010002B0C00082D0C00082F0C0008000000001D
:10002000000000000000000000000000310C00088B
:10003000330C000800000000350C0008370C0008E5
:10004000DB0B0008DB0B0008DB0B0008DB0B0008F8
:10005000DB0B0008DB0B0008DB0B0008DB0B0008E8
:10006000DB0B0008DB0B0008DB0B0008DB0B0008D8
:10007000DB0B0008DB0B0008DB0B0008DB0B0008C8
:10008000DB0B0008DB0B0008DB0B0008DB0B0008B8
:10009000DB0B0008DB0B0008DB0B0008DB0B0008A8
:1000A000DB0B0008DB0B0008DB0B0008DB0B000898
:1000B000DB0B0008390C0008DB0B0008DB0B000829
:1000C000DB0B0008DB0B0008DB0B0008DB0B000878
:1000D000DB0B00087F0C0008DB0B0008DB0B0008C3
:1000E000DB0B0008DB0B0008DB0B0008DB0B000858
:1000F000DB0B0008DB0B0008DB0B0008DB0B000848
:10010000DB0B0008DB0B0008DB0B0008DB0B000837
:10011000DB0B0008DB0B0008DB0B0008DB0B000827
:10012000DB0B0008DB0B0008DB0B0008DB0B000817
:10013000DB0B00085B0C0008DB0B0008DB0B000886
:10014000DB0B0008DB0B0008DB0B0008DB0B0008F7
:10015000DB0B0008DB0B0008DB0B0008DB0B0008E7
:10016000DB0B0008DB0B0008DB0B0008DB0B0008D7
:10017000DB0B0008DB0B0008DB0B0008DB0B0008C7
:10018000DB0B0008DB0B000800F002F800F06DF854
:100190000AA090E8000C82448344AAF10107DA45E2
:1001A00001D100F062F8AFF2090EBAE80F0013F0C7
:1001B000010F18BFFB1A43F00103184758C1000094
:1001C00078C100000A444FF0000C10F8013B13F016
:1001D000070408BF10F8014B1D1108BF10F8015BA0
:1001E000641E05D010F8016B641E01F8016BF9D193
:1001F00013F0080F1EBF10F8014BAD1C0C1B09D1EA
:100200006D1E58BF01F801CBFAD505E014F8016B5B
:1002100001F8016B6D1EF9D59142D6D370470000ED
:100220000023002400250026103A28BF78C1FBD8FF
:10023000520728BF30C148BF0B60704764290BF0DC
:10024000E58273290BF0EF84002070471FB50BF097
:10025000D7FF0BF07BFF0400002000210BF0BAFF5A
:10026000401C60601FBD10B510BD0BF037FF11467C
:10027000FFF7ECFF00F008F80BF05EFF03B4FFF7A8
:10028000F2FF03BC00F074F900F0BAF84FF4E1306B
:1002900000F07CF900203449087034A00BF04CFACF
:1002A0001BE03A48008800F40040B0B137480088AD
:1002B000C0F30D040021A01E354A1154002033491B
:1002C0000880A21E324933480BF0B0FB314932A0FE
:1002D0000BF032FA012024490870234800780028E6
:1002E000DFD000202049087033A00BF025FA1EE073
:1002F0002648008800F40040C8B124480088C0F3B4
:100300000D040021A01E224A115400201F4908801C
:10031000A01E81B210460BF0EAF82F49088008466B
:1003200001882EA00BF008FA01200F4908700E4832
:1003300000780028DCD000F09EFA00F023FB00F0EB
:1003400035FB42F2D001642000F00AFC00F07AF99B
:10035000214802880F4941F2BA300BF07EF901E0E2
:1003600000F034FAFCE7000000000020C7EBCAE40C
:10037000C8EBD0E8D2AAC1ACBDD3B5C4B7FECEF1AC
:10038000C6F74950B5D8D6B70D0A000008000020BE
:100390007C01002068010020C4FACAE4C8EBB5C49F
:1003A000B7FECEF1C6F74950B5D8D6B7CAC7A3BA7B
:1003B00025730D0A00000000C7EBCAE4C8EBD0E8C3
:1003C000D2AAC1ACBDD3B5C4B7FECEF1C6F7B6CB89
:1003D000BFDABAC50D0A000002000020C4FACAE460
:1003E000C8EBB5C4B7FECEF1C6F7B6CBBFDABAC517
:1003F000B5D8D6B7CAC7A3BA25640D0A0000000055
:1004000010B56FF0040000F00FFE10BD0146C1EB07
:10041000C10202EB42024FF0E0235A6100229A61CE
:100420001A46126942F001021A6100BF4FF0E02241
:10043000106900F001021AB100F48032002AF5D0F0
:100440004FF0E022126922F001024FF0E0231A611E
:1004500000229A61704710B50146B1F52F7F26D270
:10046000C1EBC10303EB43034FF47A7463434FF0D2
:10047000E02463610023A36123461B6943F0010369
:10048000236100BF4FF0E023186900F001031BB1A6
:1004900000F48033002BF5D04FF0E0231B6923F0EC
:1004A00001034FF0E02423610023A36154E0002204
:1004B00020E02E4B4FF0E02463610023A36123462C
:1004C0001B6943F00103236100BF4FF0E02318696B
:1004D00000F001031BB100F48033002BF5D04FF086
:1004E000E0231B6923F001034FF0E0242361002384
:1004F000A361521C4FF42F73B1FBF3F39342D8D88E
:100500004FF42F73B1FBF3F403FB1413C3EBC303DA
:1005100003EB43034FF47A7463434FF0E0246361C9
:100520000023A36123461B6943F00103236100BF3D
:100530004FF0E023186900F001031BB100F4803391
:10054000002BF5D04FF0E0231B6923F001034FF09F
:10055000E02423610023A36110BD002103E000BF5C
:1005600000BF00BF491C8142F9D37047E04DE00055
:10057000014600BF704700BF304A128802F04002B7
:10058000002AF9D0C2B22D4B9A80704710B588B0BE
:1005900004460121084601F089F80121102001F0EC
:1005A000DFF807220921264800F06DFE07220A2104
:1005B000234800F068FE4FF4C060069002208DF8DA
:1005C0001C008DF81D0000208DF81E0001208DF804
:1005D0001F0006A91A4800F0CBFD02940020ADF8D8
:1005E0000C00ADF80E00ADF81000ADF814000C20B2
:1005F000ADF8120002A9114801F05DFA01210F487F
:1006000001F0E1FA40210D4801F0C5FB012240F262
:1006100025510A4801F08DFB25208DF804000320A8
:100620008DF8050002208DF8060001208DF80700E6
:1006300001A800F0ACFC08B010BD000000100140A3
:100640000000024000B587B006F066FB06F002FD30
:1006500006F000FB0020069005900490F74902F098
:100660008EFDF748F749002204ABCDE90021029046
:1006700005AA06A9F44806F0A5FDF34806F0D8FD42
:10068000F14806F096F9F04806F037FE07B000BDD5
:1006900010B5ED4803F08BFB10BD7FB5002400259D
:1006A0000026E94844688568C668002C52D00120BD
:1006B000E6490870E44890F83000E34991F82F10BB
:1006C000E14A92F82E20E04B93F82D30CDE900322C
:1006D000CDE90210DC4890F82C3090F82B20416ACC
:1006E000DBA00BF029F8210EE8484172210C0172C1
:1006F000210AC17101468C71407A00900846037A44
:10070000C2798179E2A00BF017F8290EDF48417316
:10071000290C0173290AC17201468D72407B009039
:100720000846037BC27A817AE5A00BF005F8310E0A
:10073000D6484174310C0174310AC17301468E737D
:10074000407C00900846037CC27B817BE8A00AF0D5
:10075000F3FF3AE0BC48006A407B042835DDFF2007
:10076000BA490870C948407A0106C848007A41EA87
:100770000041C648C07941EA0020C449897908434C
:10078000B1494860C148407B0106C048007B41EA4E
:100790000041BE48C07A41EA0020BC49897A08433A
:1007A000A9498860B948407C0106B848007C41EA04
:1007B0000041B648C07B41EA0020B449897B084328
:1007C000A149C860D6A00AF0B7FF7FBD10B5D848D0
:1007D0000068D8490968401AB0F5FA7F07D3D448B1
:1007E0000068D44908606421D3480AF051FFD0481A
:1007F0000068D2490968401AFA2805D3CC48006835
:10080000CE49086007F022FFC9480068CC49096852
:10081000401A41F28831884205D3C5480068C8496A
:10082000086003F02AFBC2480068C6490968401AFC
:10083000B0F5FA7F0FD3BE480068C249086005F0E2
:10084000DCFD82480078012805D080480078FF2828
:1008500001D0FFF722FFB6480068BB490968401A7B
:100860004EF66021884205D3B1480068B649086059
:1008700005F039FC10BD7CB532250121084600F099
:1008800015FF0121042000F011FF0121082000F0D4
:100890000DFF0121402000F009FF0121880300F035
:1008A0005FFF8620009003208DF8050002208DF860
:1008B000040000208DF806008DF807006946A34863
:1008C00000F056FC0B220121A04800F0DCFC0B22BA
:1008D00002219E4800F0D7FC0B2207219B4800F024
:1008E000D2FC322000906946994800F041FC0B226E
:1008F0000121974800F0C7FC0B220421944800F026
:10090000C2FC0B220521924800F0BDFC4FF4D04000
:10091000009069468F4800F02BFC0B2211468D4851
:1009200000F0B1FC0B220D218A4800F0ACFC0B2238
:100930000E21884800F0A7FC0820009003208DF8C5
:10094000050001208DF8040000208DF806008DF8C8
:1009500007006946804800F00BFC08217E4800F043
:1009600085FC05E049F6404400E0641E002CFCD103
:100970002800A5F10101CDB2F4D10821764800F09C
:1009800073FC7CBD08B54FF4A06000F0FBFA3D207D
:100990008DF8000000208DF801008DF80200012084
:1009A0008DF80300684600F0F2FA08BD00B5AFB05C
:1009B000012001F001F801214FF0606000F076FEA7
:1009C00002F09CF802F0F1FE00BF02F0FFFE0128E9
:1009D000FBD0684602F09DF80120009000200790AF
:1009E0004FF400700A9000200B900E90119013901D
:1009F000149015904FF480600990002020904FF0E3
:100A00000070219000112390002025902690042052
:100A10002890C005299040122A9080012B90401206
:100A20002C9040002E900021684602F02CF9012104
:100A30004A4802F0E2FE2FB000BD00000C0000208A
:100A400093470008DB3D00089005002018000020B7
:100A5000CDF8BFA8C3FBB3C622257322B5C44D4150
:100A600043B5D8D6B7CEAA3A2E2E2E2E2E2E2E2E07
:100A70002E2E2E2E2E2E2E2E25642E25642E25640F
:100A80002E25642E25642E25640D0A007C05002089
:100A9000CDA8B9FD44484350BBF1C8A1B5BD4950EC
:100AA000B5D8D6B72E2E2E2E2E2E2E2E2E2E2E2E04
:100AB0002E2E25642E25642E25642E25640D0A0015
:100AC000CDA8B9FD44484350BBF1C8A1B5BDD7D3AB
:100AD000CDF8D1DAC2EB2E2E2E2E2E2E2E2E2E2E2D
:100AE0002E2E25642E25642E25642E25640D0A00E5
:100AF000CDA8B9FD44484350BBF1C8A1B5BDB5C4AC
:100B0000C4ACC8CFCDF8B9D82E2E2E2E2E2E2E2E18
:100B10002E2E25642E25642E25642E25640D0A00B4
:100B200044484350B7FECEF1B3ACCAB10D0A000041
:100B30001400002024000020010100201C000020DF
:100B400020000020280000202C000020000002408F
:100B50000008024000180240000C02404000010062
:100B60007FB505460C460121022000F0E8FD681E15
:100B70000290601E80B2ADF804000020ADF80600BF
:100B8000ADF80C0001A90D4801F005FA012211464B
:100B90000A4801F0A1FE0121084801F085FA1D2054
:100BA0008DF8000001208DF801008DF802008DF80D
:100BB0000300684600F0EBF97FBD00000004004030
:100BC0000948804709480047FEE7FEE7FEE7FEE7E1
:100BD000FEE7FEE7FEE7FEE7FEE7FEE7044805491D
:100BE000054A064B70470000510E000889010008B5
:100BF000D0B70020D0BD0020D0B90020D0B900204F
:100C000070474CA00AF098FD00BFBFF34F8F5148CA
:100C1000006800F4E06050490843001D4D49086039
:100C2000BFF34F8F00BF00BFFEE7704770477047AC
:100C3000704770477047704710B50121474801F071
:100C400062FE012804D1464800680A304449086021
:100C50000121424801F068FE10BD10B501E0FFF728
:100C600017FD4048006802F06EFD0028F7D14020D3
:100C700002F0DAFD4FF4803002F0D6FD10BD10B561
:100C800040F22551384801F08FF8002851D03648FD
:100C900000F0C8FFC4B23548008800F400400028C6
:100CA00047D13248008800F4804018B30A2C10D194
:100CB0002E480088C0F30D002D490C542B480088A5
:100CC000401C2A4908800846008840F400400880FB
:100CD0002FE026480088C0F30D0025490C54234816
:100CE0000088401C214908800846008820F4804084
:100CF00008801EE00D2C11D11C48008840F4804073
:100D00001A49088008460088C0F30D0018490C54A1
:100D100016480088401C154908800AE013480088DE
:100D2000C0F30D0012490C5410480088401C0F49B4
:100D3000088010BDB7A2C9FA486172644661756C3B
:100D400074B4EDCEF3A3ACD7BCB1B8D6D8C6F40D0D
:100D50000A0000000CED00E00000FA05000400406D
:100D6000140000205800002000100140080000205E
:100D70007C0100200CB500200190009076480068AE
:100D800040F480307449086000BF7348006800F484
:100D9000003000900198401C0190009818B901980B
:100DA000B0F5A04FF1D16C48006800F4003010B1EC
:100DB0000120009001E0002000900098012846D119
:100DC00065484030006840F0805063494031086019
:100DD0006248006840F44040604908605E4808305E
:100DE00000685D49083108600846006840F400402A
:100DF00008600846006840F4A05008605848091F81
:100E00000860081F006840F08070091F086000BF7C
:100E10005148006800F000700028F9D040F20570D9
:100E2000504908604C480830006820F003004A49E7
:100E3000083108600846006840F00200086000BF02
:100E400045480830006800F00C000828F8D10CBDB7
:100E500010B54548006840F47000434908603E48BA
:100E6000006840F001003C49086000203A49083120
:100E70000860394800683D490840374908603C48E7
:100E8000091D0860081F006820F48020091F086001
:100E9000002031490C310860FFF76CFF4FF0006013
:100EA00031498039086010BD70B50020002202234E
:100EB00000240221284D08352D6805F00C0020B1D2
:100EC000042806D0082834D107E02A4D2A4E356080
:100ED00033E02A4D284E35602FE01F4D2D1D2D6823
:100EE000C5F380541C4D2D1D2D6805F03F0154B1F4
:100EF000224DB5FBF1F5184E361D3668C6F388163F
:100F000005FB06F209E01B4DB5FBF1F5124E361D4F
:100F10003668C6F3881605FB06F20F4D2D1D2D68A9
:100F2000C5F301456D1C6B00B2FBF3F5124E356045
:100F300003E0104D104E356000BF00BF064D083570
:100F40002D68C5F303150E4E705D0B4D2D68C54021
:100F5000094E356070BD000000380240007000404E
:100F600008544007003C024088ED00E0FFFFF6FE19
:100F7000103000240024F4003000002000127A0019
:100F80003400002032490143324A1160704770B585
:100F9000002100230F22C4781CB32E4C246804F4D3
:100FA000E064C4F5E064C4F30721C1F10404E3B2D2
:100FB0000A4144789C40E1B28478144021430C07F4
:100FC000210E254C05786155047804F01F05012495
:100FD000AC4005786D11AD0005F1E025C5F8004184
:100FE00009E0047804F01F050124AC401B4D06788D
:100FF000761145F8264070BD194A0A400243154B48
:101000001B1F1A60704739B1124A121D1268024341
:10101000104B1B1D1A6006E00E4A121D1268824317
:101020000C4B1B1D1A607047042808D14FF0E021BB
:10103000096941F004014FF0E022116107E04FF02F
:10104000E021096921F004014FF0E02211617047AD
:101050000000FA050CED00E000E400E080E100E0B3
:1010600080FFFF1F10B504469848844208D1012133
:10107000084600F086FB0021012000F082FB76E0AC
:101080009348844208D10121022000F07AFB00211C
:10109000022000F076FB6AE08E48844208D10121EC
:1010A000042000F06EFB0021042000F06AFB5EE0EB
:1010B0008948844208D10121082000F062FB002108
:1010C000082000F05EFB52E08448844208D10121F0
:1010D000102000F056FB0021102000F052FB46E0EB
:1010E0007F48844208D10121202000F04AFB0021E2
:1010F000202000F046FB3AE07A48844208D10121E2
:10110000402000F03EFB0021402000F03AFB2EE0A2
:101110007548844208D10121802000F032FB002173
:10112000802000F02EFB22E07048844208D101218B
:10113000801500F026FB0021A01500F022FB16E030
:101140006B48844208D10121401500F01AFB0021B0
:10115000601500F016FB0AE06648844207D10121C1
:10116000001500F00EFB0021201500F00AFB10BD59
:10117000F0B50A4600210023002400BF3DE0012510
:1011800005FA01F3156805EA03049C4234D10568A9
:101190004F000326BE40B543056015794E00B540AB
:1011A0000668354305601579012D02D01579022DA9
:1011B00016D185684F000326BE40B543856055793A
:1011C0004E00B540866835438560456801268E40EF
:1011D000B5434560456896798E40B6B23543456063
:1011E000C5684F000326BE40B543C560D5794E00A3
:1011F000B540C6683543C560491C1029BFD3F0BD52
:101200004FF6FF7101600021017141718171C1715F
:10121000704708B54FF480320092009A0A4300925A
:10122000009AC261C161009AC261C2690092C2693A
:10123000009208BD0246002013690B400BB101204B
:1012400000E0002070470146086980B270470246FE
:10125000002053690B400BB1012000E000207047D3
:101260000146486980B270470183704741837047E7
:101270000AB1018300E041837047416170474269D0
:101280004A4042617047F0B5002300244D07ED0E3F
:1012900002FA05F3CE1000F1200555F826504E074E
:1012A000F70E0F26BE40B543CF1000F1200646F8DA
:1012B0002750CE1000F1200555F8265045EA0304CA
:1012C000CE1000F1200545F82640F0BD0000024098
:1012D0000004024000080240000C024000100240DE
:1012E0000014024000180240001C0240002002408E
:1012F0000024024000280240F948006840F0010044
:10130000F74908600020F64908310860F448006891
:10131000F4490840F2490860F348091D0860F348A1
:10132000EF4984310860F0481038091D0860EC4826
:10133000006820F48020EA4908600020E8490C3168
:101340000860E7498C31086070470021E44A921C2C
:10135000117011460870704710B501460022002335
:1013600000204A11012A02D1DD4C236808E0022A3C
:1013700003D1DB4C7034236802E0D94C7434236809
:1013800001F01F02012494401C400CB1012000E038
:10139000002010BD38B5002000900024002500BFBB
:1013A0003120FFF7D9FF05460098401C00900098B7
:1013B000B0F5A04F01D0002DF2D03120FFF7CCFFC7
:1013C00008B1012400E00024204638BD0146002079
:1013D000C34A106820F0F80040EAC100106070476E
:1013E000C349086070470021BD4A70321170117006
:1013F000012802D004280AD104E00121B84A703241
:10140000117005E00521B64A7032117000E000BF8E
:1014100000BF7047B7490860704770B5049C41EA47
:1014200082150126C6EB530645EA0645054345EA03
:101430000465AB4E361D356070BDAD49086670471A
:10144000820142EA0172A64B84331A607047A849B0
:101450008866704710B5830143EA016343EA02736B
:101460009F4C8834236010BDA14908677047A0498C
:10147000C864704702460020994B0833186820F072
:10148000EC6042EA01031843954B0833186070473B
:1014900002460020924B0833186820F0784042EA58
:1014A000010318438E4B0833186070470146002033
:1014B0008B4A0832106820F0030008431060704720
:1014C00087480830006800F00C0070470146002093
:1014D000834A0832106820F0F0000843106070471B
:1014E000014600207E4A0832106820F4E05008438C
:1014F0001060704701460020794A0832106820F4D5
:10150000604040EAC10010607047F0B50021002241
:101510000024022500260223714F08373F6807F098
:101520000C0121B1042905D0082937D105E0724FFB
:10153000076036E0714F076033E0694F3F1D3F6839
:10154000C7F38056664F3F1D3F6807F03F036EB1FB
:101550006A4FB7FBF3F7DFF888C10CF1040CDCF835
:1015600000C0CCF3881C07FB0CF40CE0624FB7FB07
:10157000F3F7DFF86CC10CF1040CDCF800C0CCF31D
:10158000881C07FB0CF4564F3F1D3F68C7F301470B
:101590007F1C7D00B4FBF5F7076002E0564F076043
:1015A00000BF00BF4E4F08373F6807F0F001090940
:1015B000534F7A5C0768D7404760494F08373F6808
:1015C00007F4E051890A4E4F7A5C4768D74087603C
:1015D000434F08373F6807F46041490B484F7A5C36
:1015E0004768D740C760F0BD002100F44072B2F5F3
:1015F000407F0AD13A4A0832116821F4F811414A71
:1016000002401143364A08321160354A703212687E
:10161000C0F30B031A43324B70331A6070473549DD
:10162000443908607047334940390860704736498B
:101630000860704701460020294A8C32106820F06B
:101640001F004A1E1043264A8C3210607047014624
:101650000020234A8C32106820F4F8504A1E40EAD9
:1016600002201F4A8C3210607047014600201C4A3D
:101670008C32106820F44010084310607047014617
:101680000020174A8C32106820F440000843106094
:10169000704701460020124A8C32106820F4403016
:1016A00008431060704719490860704739B10C4A07
:1016B0003032126802430A4B30331A6006E0084A9F
:1016C000303212688243064B30331A607047F9B1EA
:1016D000034A343212680243014B34331A601CE06F
:1016E00000380240FFFFF6EA1030002400300020EE
:1016F00000004742800E47420024F40000127A00A6
:1017000044000020FFFCFF0F5C014742E01147420C
:101710008F4A126882438E4B1A60704739B18C4AE7
:10172000121D126802438A4B1B1D1A6006E0884A8C
:10173000121D12688243864B1B1D1A60704739B117
:10174000834A0C3212680243814B0C331A6006E064
:101750007F4A0C32126882437D4B0C331A6070470B
:1017600039B17B4A103212680243794B10331A6048
:1017700006E0774A103212688243754B10331A60C4
:10178000704739B1724A243A12680243704B243BC5
:101790001A6006E06E4A243A126882436C4B243B7E
:1017A0001A60704739B16A4A203A12680243684B9E
:1017B000203B1A6006E0664A203A12688243644B76
:1017C000203B1A60704739B1614A1C3A12680243E3
:1017D0005F4B1C3B1A6006E05D4A1C3A126882436C
:1017E0005B4B1C3B1A60704739B1594A143A126876
:1017F0000243574B143B1A6006E0554A143A1268EC
:101800008243534B143B1A60704739B1504A103A27
:10181000126802434E4B103B1A6006E04C4A103AE5
:10182000126882434A4B103B1A60704739B1484AEC
:101830001C3212680243464B1C331A6006E0444ACD
:101840001C3212688243424B1C331A60704739B114
:101850003F4A2032126802433D4B20331A6006E0B3
:101860003B4A203212688243394B20331A6070475A
:1018700039B1374A243212680243354B24331A6097
:1018800006E0334A243212688243314B24331A6013
:10189000704739B12E4A2C32126802432C4B2C333C
:1018A0001A6006E02A4A2C3212688243284B2C33F5
:1018B0001A60704739B1264A303212680243244B0D
:1018C00030331A6006E0224A303212688243204BDD
:1018D00030331A607047012808D11D493C3109682E
:1018E00041F008011A4A3C32116007E018493C31C6
:1018F000096821F00801164A3C321160704739B17D
:10190000134A273A12780243114B273B1A7006E01C
:101910000F4A273A127882430D4B273B1A707047C3
:101920000B484030006840F0807009494031086041
:10193000704701460020064A283A12680A400AB158
:10194000012000E0002070470149263908707047E7
:101950003438024010B501218803FFF756FF0021FB
:101960004FF48040FFF751FF10BD1C4908607047DD
:101970001B490862704730B500228B071C0F0F23EC
:1019800003FA04F2154B08338C1053F824309343B8
:10199000124C08348D1044F8253023468C1053F82F
:1019A00024308C07240F00FA04F423430B4C083432
:1019B0008D1044F8253030BD0949DC31086070478E
:1019C000084908607047002004492031096801F483
:1019D000807109B1012000E000207047003801400B
:1019E000000027420004274210B50446FA4884420A
:1019F00008D101211020FFF708FF00211020FFF778
:101A000004FF57E0F548844209D101214804FFF75B
:101A1000EBFE00214FF40030FFF7E6FE4AE0F0480D
:101A2000844209D101218804FFF7DEFE00214FF432
:101A30008020FFF7D9FE3DE0EA48844209D1012128
:101A4000C804FFF7D1FE00214FF40020FFF7CCFEC1
:101A500030E0E548844209D101210805FFF7C4FEC2
:101A600000214FF48010FFF7BFFE23E0DF488442DF
:101A700008D101212020FFF7C8FE00212020FFF718
:101A8000C4FE17E0DA48844209D101218807FFF734
:101A9000ABFE00214FF08040FFF7A6FE0AE0D548DC
:101AA000844207D101214005FFF79EFE0021600519
:101AB000FFF79AFE10BD2DE9FF4705460E460024AC
:101AC000A14600BFA046B08900B100BF2C8A24F413
:101AD0004054F08804432C82AC8941F20C6084436A
:101AE000B08831890843718908430443AC81AC8ACA
:101AF00024F44074B0890443AC826846FFF705FDC6
:101B0000B548854202D0B948854202D1DDF80C9033
:101B100001E0DDF80890A88900F4004040B109EB2D
:101B2000C90000EB091031684900B0FBF1F707E08C
:101B300009EBC90000EB091031688900B0FBF1F72F
:101B40006420B7FBF0F004012009642101FB107848
:101B5000A88900F4004040B1322000EBC800B0FB7F
:101B6000F1F000F00700044308E0322000EB081019
:101B70006421B0FBF1F000F00F0004432C81BDE8BC
:101B8000FF874FF41651016000218180C1800181DF
:101B90000C21418100218181704710B5024600204F
:101BA000108A20F470600B884C8823438C88234370
:101BB000CC8823431843108210BD0021018041804E
:101BC0008180C180704721B1828942F400528281B4
:101BD00004E082894DF6FF731A4082817047028BC0
:101BE00002F47F420283028B0A430283704721B1D1
:101BF000828942F40042828103E08289C2F30E02AC
:101C00008281704721B1828A42F40062828204E0BC
:101C1000828A4FF2FF731A4082827047C1F3080232
:101C20008280704701468888C0F308007047028AA6
:101C30004FF6F0731A400282028A0A43028270470A
:101C400021B1828942F00202828104E082894FF64A
:101C5000FD731A408281704782894FF2FF731A40E8
:101C6000828182890A4382817047028A4FF6DF733C
:101C70001A400282028A0A430282704721B1028A14
:101C800042F48042028204E0028A4BF6FF731A405B
:101C900002827047818941F001018181704721B141
:101CA000828A42F00802828204E0828A4FF6F77349
:101CB0001A4082827047028BD2B20283028B42EAC0
:101CC00001220283704721B1828A42F0200282827F
:101CD00004E0828A4FF6DF731A408282704721B196
:101CE000828A42F01002828204E0828A4FF6EF7309
:101CF0001A4082827047828A4FF6FB731A408282B2
:101D0000828A0A438282704721B1828A42F00202AB
:101D1000828204E0828A4FF6FD731A408282704705
:101D20001AB1838A0B43838202E0838A8B438382C6
:101D30007047F0B50346002400260025002040F639
:101D40006A17B94200D100BF1846C1F3421401F02E
:101D50001F06012707FA06F5012C01D10C3004E01B
:101D6000022C01D1103000E014301AB107682F4363
:101D7000076002E00768AF430760F0BD024600203D
:101D8000B1F5007F00D100BF13880B400BB10120DB
:101D900000E00020704701F40072B2F5007F00D12E
:101DA00000BFCA430280704770B50246002400237A
:101DB0000025002040F66A16B14200D100BFC1F3F1
:101DC000421501F01F03012606FA03F3012D13D17A
:101DD0009689334017E000000010014000440040A5
:101DE00000480040004C00400050004000140140FA
:101DF00000780040007C0040022D02D1168A33405A
:101E000001E0968A33400C12012606FA04F4168883
:101E1000344013B10CB1012000E0002070BD10B5BA
:101E20000022002340F66A14A14200D100BF0A122A
:101E300001249440A3B2DC43048010BD10B50446D5
:101E4000FE48844208D101210846FFF7DEFC00214C
:101E50000120FFF7DAFC9DE0B4F1804F08D10121A9
:101E60000846FFF7C1FC00210120FFF7BDFC91E00F
:101E7000F348844208D101210220FFF7B5FC00217C
:101E80000220FFF7B1FC85E0EE48844208D1012131
:101E90000420FFF7A9FC00210420FFF7A5FC79E04E
:101EA000E948844208D101210820FFF79DFC002168
:101EB0000820FFF799FC6DE0E448844208D1012135
:101EC0001020FFF791FC00211020FFF78DFC61E04E
:101ED000DF48844208D101212020FFF785FC002142
:101EE0002020FFF781FC55E0DA48844208D1012127
:101EF0000220FFF78AFC00210220FFF786FC49E060
:101F0000D548844209D101210804FFF77EFC002155
:101F10004FF48030FFF779FC3CE0D048844209D18F
:101F200001214804FFF771FC00214FF40030FFF756
:101F30006CFC2FE0CA48844209D101218804FFF7D4
:101F400064FC00214FF48020FFF75FFC22E0C548CD
:101F5000844208D101214020FFF746FC00214020A7
:101F6000FFF742FC16E0C048844208D101218020DE
:101F7000FFF73AFC00218020FFF736FC0AE0BB485F
:101F8000844207D101218015FFF72EFC0021A01506
:101F9000FFF72AFC10BD00220288A84B98420ED001
:101FA000AC4B98420BD0B0F1804F08D0A44B984274
:101FB00005D0A44B984202D0A34B984204D14FF6CF
:101FC0008F731A404B881A43A04B984207D0A04BFE
:101FD000984204D04FF6FF431A400B891A430280FF
:101FE0004B68C3620B880385944B984202D0994B8F
:101FF000984201D18B7A03860123838270474FF088
:10200000FF31416000210180018141808172704770
:102010000185828270470A46002101884FF68F733E
:10202000194011430180704741627047C162704797
:102030000146486A70470146088D704721B1028801
:1020400042F00202028004E002884FF6FD731A405B
:102050000280704721B1028842F00402028004E04D
:1020600002884FF6FB731A400280704721B1028844
:1020700042F08002028004E002884FF67F731A402B
:102080000280704702884FF6F7731A400280028878
:102090000A430280704702884FF6FF431A400280CD
:1020A00002880A430280704721B1028842F001028F
:1020B000028004E002884FF6FE731A4002807047E7
:1020C00070B5002400220023058C4FF6FE763540C3
:1020D0000584028C8388048B4FF68F752C40B51EC7
:1020E0002C400D882C43751E2A408D892A434D882B
:1020F0002A43524DA84202D0564DA84213D14FF662
:10210000F7752A40CD892A434FF6FB752A408D8802
:102110002A434FF6FF652B404FF6FF552B400D8AA3
:102120002B434D8A2B43838004838D68456302844F
:1021300070BD70B5002400220023058C4FF6EF76A9
:1021400035400584028C8388048B48F6FF752C404B
:102150004FF6FF452C400D884FF6FF7606EA052521
:102160002C434FF6DF752A408D8906EA05152A4370
:102170004D8806EA05152A43304DA84202D0354D58
:10218000A8421DD14FF67F752A40CD894FF6FF76C4
:1021900006EA05152A434FF6BF752A408D8806EAE0
:1021A00005152A434FF6FF352B404FF2FF752B40A4
:1021B0000D8A06EA85052B434D8A06EA85052B43E1
:1021C000838004838D688563028470BD70B50024AC
:1021D00000220023058C4FF6FF6635400584028CF3
:1021E0008388848B4FF68F752C404FF6FC752C40FE
:1021F0000D882C434FF6FF552A408D894FF6FF7608
:1022000006EA05252A434D8806EA05252A430B4D93
:10221000A84202D00F4DA84238D14FF2FF752A4094
:10222000CD894FF6FF7606EA05252A434FF6FF359E
:102230002A408D8806EA05252A4319E0000001405E
:102240000004004000080040000C00400010004066
:1022500000140040000401400040014000440140DF
:102260000048014000180040001C004000200040D1
:102270004EF6FF752B404DF6FF752B400D8A06EA92
:1022800005152B434D8A06EA05152B43838084836D
:102290008D68C563028470BD70B5002200230024E0
:1022A000058C4EF6FF7635400584038C8488828B3E
:1022B00048F6FF752A404FF6FF452A400D884FF635
:1022C000FF7606EA05252A434DF6FF752B408D89DA
:1022D00006EA05352B434D8806EA05352B43FE4DAE
:1022E000A84202D0FD4DA84208D14BF6FF752C4004
:1022F0000D8A4FF6FF7606EA85152C43848082838B
:102300008D680564038470BD002101804180818057
:1023100081608181C18101824182704770B503462D
:10232000002000241846183001258D40ACB21D8CC9
:10233000A5431D8409B108290AD100EB6100056895
:102340004FF68F76354005600568154305600FE050
:102350000D1FC5F34E052844056848F6FF76354045
:10236000056005684FF6FF7606EA022635430560EC
:1023700070BD4163704781637047C16370470164FA
:1023800070470A460021018B4FF68F7319401143A5
:10239000018370470A460021018B48F6FF731940FC
:1023A0004FF6FF7303EA02231943018370470A467D
:1023B0000021818B4FF68F73194011438183704741
:1023C0000A460021818B48F6FF7319404FF6FF73D0
:1023D00003EA02231943818370470A460021018BD7
:1023E0004FF6F77319401143018370470A460021E5
:1023F000018B4FF2FF7319404FF6FF7303EA02237C
:102400001943018370470A460021818B4FF6F77309
:1024100019401143818370470A460021818B4FF296
:10242000FF7319404FF6FF7303EA022319438183B8
:1024300070470A460021018B4FF6FB731940114388
:10244000018370470A460021018B4FF6FF33194084
:102450004FF6FF7303EA02231943018370470A46CC
:102460000021818B4FF6FB73194011438183704724
:102470000A460021818B4FF6FF3319404FF6FF7358
:1024800003EA02231943818370470A460021018B26
:102490004FF67F7319401143018370470A460021AC
:1024A000018BC1F30E014FF6FF7303EA02231943B8
:1024B000018370470A460021818B4FF67F731940D4
:1024C0001143818370470A460021818BC1F30E01BD
:1024D0004FF6FF7303EA02231943818370470A46CC
:1024E0000021018C4FF6FD731940114301847047A0
:1024F0000A460021018C4FF6F773194011430184FD
:1025000070470A460021018C4FF6DF7319404FF6E1
:10251000FF7303EA02131943018470470A4600213E
:10252000018C4FF67F7319404FF6FF7303EA0213D5
:102530001943018470470A460021018C4FF6FF536E
:1025400019404FF6FF7303EA0223194301847047D1
:102550000A460021018C4FF2FF7319404FF6FF73BA
:1025600003EA02231943018470470A460021018CC3
:102570004DF6FF7319404FF6FF7303EA0233194318
:102580000184704730B5002301248C40A3B2048C31
:102590009C430484048C02FA01F5ADB22C430484FC
:1025A00030BD30B5002304248C40A3B2048C9C437E
:1025B0000484048C02FA01F5ADB22C43048430BDCE
:1025C000828B4FF2FF331A408283828B4FF6FF7368
:1025D00003EA01231A4382837047F0B50C4615467F
:1025E000002100220026078C4EF6FF7C07EA0C072C
:1025F0000784818B028C4FF6FF7707EA043640F69A
:10260000FF4739404FF6FF7707EA052739434FF672
:10261000FF7707EA0337394345F6FF773A4046F438
:1026200080573A4381830284F0BD828B4FF6F37367
:102630001A408283828B0A4382837047F0B50C462E
:102640001546002100220026078C4FF6FF6C07EA92
:102650000C070784818B028C4FF6FF7707EA04266C
:102660004FF60C7739404FF6FF7707EA03172F43F1
:1026700039434FF2FF573A4046F480773A4381831B
:102680000284F0BD028B4FF2FF331A400283028BAB
:102690004FF6FF7303EA01231A4302837047F0B534
:1026A0000C461546002100220026078C4FF6EF7CD1
:1026B00007EA0C070784018B028C4FF6FF7707EAC5
:1026C000041640F6FF4739404FF6FF7707EA033715
:1026D00039434FF6FF7703E000000140000401405A
:1026E00007EA052739434FF65F773A4046F010076F
:1026F0003A4301830284F0BD028B4FF6F3731A4014
:102700000283028B0A4302837047F0B50C461546DC
:1027100000210022068C4FF6FE773E400684018B96
:10272000028C4FF60C7631407E1C06EA03162E43CF
:1027300031434FF6F576324044F0010632430183CF
:102740000284F0BD70B505460C46208850B9238937
:10275000A28861882846FFF7D8FFE1882846FFF75E
:10276000CBFF25E0208804280AD12389A28861882C
:102770002846FFF794FFE1882846FFF783FF17E01C
:10278000208808280AD12389A28861882846FFF773
:1027900055FFE1882846FFF748FF09E02389A28812
:1027A00061882846FFF719FFE1882846FFF708FFF0
:1027B00070BD002101804180012181800021C18004
:1027C000018170472DE9F04105460C46002601279E
:1027D000608808B9022600E00026A088012801D1FF
:1027E000022700E001272088A0B92389A2886188F8
:1027F0002846FFF78AFFE1882846FFF77DFF2389F7
:102800003A4631462846FFF74AFFE1882846FFF757
:1028100039FF13E02389A28861882846FFF73FFF2C
:10282000E1882846FFF72EFF23893A46314628469D
:10283000FFF76BFFE1882846FFF75EFFBDE8F081F8
:102840000146486B70470146886B70470146C86B6C
:1028500070470146086C70470A884B881A438B887A
:102860001A43CB881A430B891A434B891A438B8925
:102870001A43A0F8442070470021018041808180E4
:10288000C180018141818181704731B1B0F844201C
:1028900042F40042A0F8442005E0B0F84420C2F31E
:1028A0000E02A0F84420704721B1828842F0040251
:1028B000828004E082884FF6FB731A408280704762
:1028C00021B1828842F00102828004E082884FF6C2
:1028D000FE731A40828070471AB183890B4383814B
:1028E00002E083898B43838170478182704702466F
:1028F0000020138A0B400BB1012000E0002070473C
:10290000CA430282704730B50246002000230024EB
:10291000158A05EA0103958905EA010413B10CB192
:10292000012000E0002030BDCA430282704741EA26
:102930000203A0F8483070471AB183890B438381A2
:1029400002E083898B438381704721B1828842F002
:102950000802828004E082884FF6F7731A40828072
:10296000704701894FF6F8721140018170470A469D
:10297000002101894FF68F7319401143018170477F
:1029800030B504460D4629462046FFF7F0FF208962
:1029900040F00700208130BD2DE9F04104460D468E
:1029A00016461F46602D06D13B4601223146204681
:1029B000FFF775FE05E03B46012231462046FFF752
:1029C000A4FE29462046FFF7D2FF208940F00700E9
:1029D0002081BDE8F08130B50C4600210189C9B2E3
:1029E0004FF6FF7505EA0325154325432943018169
:1029F00030BD2DE9F04105460E46174698460024A5
:102A000043463A4631462846FFF7E5FF2C894FF604
:102A1000F870044044F007044FF68F70044044F00F
:102A200070042C81BDE8F081F0B504460D461646D1
:102A30001F463B46324629462046FFF7CCFF2089F9
:102A400040F480402081F0BD82884FF68F731A4099
:102A5000828082880A438280704702894FF6F87329
:102A60001A40028102890A430281704702894FF6A7
:102A70007F731A40028102890A4302817047F0B5D0
:102A80000C4615461E460021002200230189028BB8
:102A9000038C4FF6F877394021434FF6FC473A4014
:102AA00040F201173A434FF6DD773B404FF6FF7790
:102AB00007EA06172F433B43018102830384F0BDDD
:102AC00021B1828842F08002828004E082884FF641
:102AD0007F731A4082807047A0F850107047000042
:102AE00001B581B0002000900198009002E00098AC
:102AF000401E009000980028F9D10CBD10B50121AE
:102B00004806FEF73EFE00214FF00070FEF739FE4A
:102B100010BD01210160002141608160C16001613F
:102B20004FF48041416100218161C1614FF4006136
:102B30000162002141628162C1620163416381637C
:102B4000C163402101642021416400218164C1648A
:102B5000016541658165C16501668021416600218D
:102B60008166C166016741678167C1674FF0806117
:102B7000C0F880104910C0F884100021C0F88810F7
:102B80004FF40011C0F88C100021C0F89010C0F86C
:102B90009410C0F89810C0F89C10C0F8A0104FF026
:102BA0000071C0F8A4104912C0F8A8108901C0F83B
:102BB000AC104912C0F8B0100021C0F8B410C0F831
:102BC000B810704738B503460C460021002000902D
:102BD000F748016901F01C014FF4784000EAC32076
:102BE00001434FF4F86000EA8410014341F0020110
:102BF00041F00101EE484261016100BF0098401CB4
:102C00000090EB48016901F0010018B1E94D00980E
:102C1000A842F3D3E74D0098A84201D1002038BD67
:102C20000120FCE718B502460B4600210020009069
:102C3000DF48016901F01C014FF4784000EAC2202E
:102C400001434FF4F86000EA8310014321F00201D0
:102C500041F00101D648016100BF0098401C00907E
:102C6000D348016901F0010018B1D24C0098A0428C
:102C7000F3D3D04C0098A04201D1002018BDCC481D
:102C8000406980B2FAE72DE9F04188B004460F466A
:102C90004FF00008002500200790C74E0290012049
:102CA0000190C348056925F01C0503A8FEF72DFC1B
:102CB000049EC248864205D3C148864202D245F0EE
:102CC00008051AE0BE48864205D3BB48864202D2B8
:102CD00045F00C0511E0B848864203D3B948864256
:102CE00000D20AE0B748864205D3B748864202D2EE
:102CF00045F0040501E045F01005AD4805614FF4CD
:102D0000004200213846FFF75DFF10B90020019016
:102D10006AE0AE48FFF7E4FE2068002850D000BF0C
:102D20000298401C029001213846FFF77BFF00F01B
:102D3000040018B99F4902988842F1D39D4902982E
:102D4000884202D1002001904EE0002002904FF412
:102D5000805200213846FFF735FF08B90020019066
:102D600000BF0298401C029001213846FFF75AFF2D
:102D700000F0200018B98F4902988842F1D38D499C
:102D80000298884202D1002001902DE0002002909C
:102D90001F213846FFF746FF804608F0100018B1A3
:102DA0004FF40060206201E00020206208F004007F
:102DB00010B10020606116E04FF48040606112E0C5
:102DC000206AC0F3CF006169C1F34F0140EA0102FC
:102DD00000213846FFF7F6FE08B9002001906FF099
:102DE0007F40FFF77DFE00BF019820B94FF40060DF
:102DF0002062C00060616E48056875480540D4E9EE
:102E000001010843E16808432169084361690843F7
:102E1000A1690843E1690843216A0843616A0843DC
:102E2000A16A0843E16A0843216B0843616B0843C8
:102E300005435F48056005684FF6FF70FFF750FED9
:102E40005B480560D4E90E010843216C0843616CBE
:102E50000843A16C0843E16C0843216D0843616D90
:102E6000084353494860084645684FF6FF70FFF72E
:102E700037FE4F4845604E49A06D8860E06DC860E0
:102E8000084685694FF641700540B4F86010606EE1
:102E900040EA0140A16E0843E16E0843216F0843F8
:102EA000616F084305434248856185694FF6FF70AD
:102EB000FFF716FE3E488561D4E91E0108433C49F0
:102EC000C8610846C5694FF6FF70FFF709FE38482C
:102ED000C5614048856940480540D4E92001084360
:102EE000D4F888100843D4F88C100843D4F8901014
:102EF0000843D4F894100843D4F898100843D4F841
:102F00009C100843D4F8A01008430543314885615C
:102F100085694FF6FF70FFF7E3FD2E488561D4E920
:102F200029010843D4F8AC100843D4F8B010084382
:102F3000D4F8B41040EA8100D4F8B810084340F443
:102F4000000024490860084605684FF6FF70FFF747
:102F5000C7FD20480560006840F080001D490860FA
:102F6000084605684FF6FF70FFF7BAFD194805607F
:102F70000198012802D108B0BDE8F0810020FAE7ED
:102F800030B11449896941F00201124A916105E0AA
:102F90001049896921F002010E4A91617047E8B138
:102FA0000C49896941F400510A4A91611CE0000012
:102FB00000800240FFFF040000879303002D3101D1
:102FC000C00E160200E1F50580D1F008FFFF0F00EA
:102FD0000F8120FF00900240233FDEF8FA49896903
:102FE00021F40051F84A9161704708B50020009023
:102FF000F548806940F48010F3498861084680698B
:1030000000904FF6FF70FFF76BFDEF490098886165
:1030100008BD38B504460020009034B1EB48006884
:1030200040F00400E949086005E0E848006820F045
:103030000400E6490860E548006800904FF6FF701C
:10304000FFF74EFDE1490098086038BD38B50446E9
:103050000020009034B1DD48006840F00800DB49F2
:10306000086005E0D948006820F00800D7490860EA
:10307000D648006800904FF6FF70FFF731FDD34946
:103080000098086038BD10B50120FFF7DFFF012070
:10309000FFF7BFFFFFF7A9FF0120FFF780FF012027
:1030A000FFF76EFF10BD10B50020FFF778FF00207E
:1030B000FFF766FF0020FFF7ACFFFFF796FF002049
:1030C000FFF7C4FF10BD0020C049896901F001016C
:1030D00009B1012000E00020704708B500200090F1
:1030E000BA48806940F00100B849886108468069A3
:1030F00000904FF6FF70FFF7F3FCB4490098886129
:1031000008BD38B504460020009034B1AF4880694E
:1031100040F00100AD49886105E0AC48806920F0CD
:103120000100AA498861A948806900904FF6FF70A4
:10313000FFF7D6FCA5490098886138BD01460020FC
:10314000A24A926B0A400AB1012000E000207047B9
:10315000014600209D4A926B0A400AB1012000E01E
:103160000020704729B1994AD26B8243974BDA63AA
:1031700004E0964AD26B0243944BDA63704710B571
:103180000B794C7943EA0422904B03441A64CB78C0
:103190001B068C7843EA04434C7843EA04230C78FA
:1031A00043EA0402894B03445A6410BD0246874B2C
:1031B0001344186C030A4B710871844B1344586C08
:1031C000030ECB70030C8B70030A4B7008707047B2
:1031D00038B504460D460020009045B17B48204498
:1031E000006C40F0004079492144086407E07748CA
:1031F0002044006C20F00040744921440864734866
:103200002044006C00904FF6FF70FFF769FC6F4997
:1032100021440098086438BD38B504460D460020A6
:103220000090082D08D069482044006C40F0804090
:1032300066492144086407E064482044006C20F09B
:10324000804062492144086460482044006C00903A
:103250004FF6FF70FFF744FC5C4921440098086476
:1032600038BD38B504460D4600200090574820442C
:10327000006C20F07C505549214408645348204498
:10328000006C00904FF6FF70FFF72AFC4F49214475
:10329000009808644D482044006C28434B49214461
:1032A00008644A482044006C00904FF6FF70FFF716
:1032B00017FC464921440098086438BD1EB500211A
:1032C0000022009201920292414A12681268C2F3EF
:1032D0000D42111F00913F4A1268126802923D4A46
:1032E0001268126892680192394A1268D268384BA3
:1032F0001A609DE81C0080E81C001EBD0FB500216F
:10330000019102910391009178E00099491C00918C
:103310002F490968096801F40071A1B12C490968B5
:10332000096801F4807171B929490968294A12684C
:1033300011600121274A1268916025490968C9680E
:10334000234A11605AE022490968096801F4807132
:1033500091B91F490968096801F4007161B91D49F3
:1033600009688968491C1B4A1268916018490968F4
:10337000C968174A116041E015490968154A126881
:103380005160144909688968491C124A12689160A1
:10339000104909688968012904D10D4909680D4A55
:1033A000126811600A4909680968C1F30D41091FD3
:1033B000019108490968896801290DD905490968F9
:1033C0000968896802910BE0009002400080024089
:1033D000580000205C000020F749096889680291C4
:1033E000F649096809680391F3490968C968F24A0E
:1033F000116001A90EC980E80E000FBDEE490968F1
:10340000096801F0004119B900990529FFF47DAF61
:1034100001A90EC980E80E0000BFEEE770B50246B4
:10342000002300250024E6480068006800F0004002
:1034300008B1002070BDE248016840F2F4508242B9
:1034400008DD92FBF0F392FBF0F600FB162010B1C2
:103450005B1C00E00123012B0CD1086840F04050B8
:103460000860C2F30C004860086840F00040086043
:10347000C96826E0002422E0086820F04050086077
:103480001CB9086840F08050086040F2F450486071
:10349000581EA0420DD1086840F000500860581E28
:1034A000C0EBC01000EB4000A2EB8005C5F30C00A0
:1034B0004860086840F000400860C968641C9C428D
:1034C000DAD3BF480160BF48406900F0040020B172
:1034D0000420BC4E7061002070600120AAE770B526
:1034E0000C4613460021B44D286000BF18E000EBE5
:1034F00041124FF00045156044F2F4555560C1EBA0
:10350000C11505EB450504EB850595605D1E8D42F3
:1035100004D900EB41152035D56000E0D060491C8E
:103520009942E4D3A74DE860A74DA44E356070BD25
:10353000A1480068006800F00040E8B99E480068B3
:10354000006800F48070B8B19C4800688068401C36
:103550009A4909688860994800688068012804D100
:103560009548006895490968086093480068934940
:1035700009684860012070478F480068006800F0C3
:103580000040F0B98C480068006800F40070C0B1D9
:1035900089480068006800F4807090B98648006827
:1035A000864909680860002084490968486001204C
:1035B00082490968886080480068C0687E49086060
:1035C0001DE07D480068006800F00040B8B97A4806
:1035D0000068006800F4007088B9774800680068E7
:1035E00000F4807058B9754800688068401C7349C1
:1035F0000968886070480068C0686F4908600020EA
:10360000B9E730B50C46134600216D4D286000BF68
:1036100015E000EB41124FF480151560C1EBC115A8
:1036200005EB450504EB850595605D1E8D4204D9CB
:1036300000EB41152035D56000E0D060491C99426F
:10364000E7D3604D286130BD0246002013680B406F
:103650000BB1012000E00020704701460868C0F36C
:10366000C3007047016841F000410160704721B11B
:10367000026842F08042026003E0026822F0804269
:103680000260704702680A430260704702680A439A
:103690000260704721B1026822F00062026003E01C
:1036A000026842F000620260704721B1026842F491
:1036B0008012026003E0026822F480120260704708
:1036C00021B1026822F08062026003E0026842F0E9
:1036D00080620260704710B541EA024443682343A8
:1036E000436010BD0246002013680B400BB101205F
:1036F00000E0002070470246002013690B400BB128
:10370000012000E000207047016841F000410160A5
:10371000704701460868C0F30D40704721B1426808
:1037200022F00042426003E0426842F00042426000
:103730007047024619B15068C0F30C40704790883A
:10374000C0F30C00FAE700B502460023106800F051
:10375000004058B9106800F4004038B9106800F40F
:10376000807018B11046FFF7D4FF0346184600BD1D
:1037700038B504460020009034B11248006840F08B
:1037800080001049086005E00E48006820F08000C5
:103790000C4908600B48006800904FF6FF70FFF777
:1037A0009FF908490098086038BD0648006840F055
:1037B0000100044908607047580000205C000020A8
:1037C0005400002000900240904200200020E84970
:1037D000096801F0010109B1012000E000207047F3
:1037E00001460020E24A52690A400AB1012000E085
:1037F00000207047DE494861704729B1DC4AD26930
:103800000243DB4BDA6104E0D94AD2698243D84BE8
:10381000DA61704701460020D54A52690A400AB170
:10382000012000E000207047D14948617047D0482E
:10383000406900F001007047CD48406900F0400049
:1038400070470020CA49896901F4801109B101203B
:1038500000E00020704701460020C54A126A0A4075
:103860000AB1012000E000207047C148006AC0F39F
:103870004A407047BE48006A80B27047BC48806CBE
:103880007047BB48C06C7047B948006D7047B84876
:10389000406D70470020B649486070470020B44929
:1038A00088607047B2494862704770B506460D4659
:1038B000002400213046FFF7B5F9044615B144F461
:1038C000804402E04BF6FF7004402246002130465F
:1038D000FFF778F908B1012070BD0020FCE708B5BA
:1038E00000200090A348C06A40F00040A149C8628F
:1038F0000846C06A00904FF6FF70FFF7F1F89D4947
:103900000098C86208BD38B5054600200090002424
:1039100000BF0EE055F82400964988620846806A88
:1039200000904FF6FF70FFF7DBF89249009888622D
:10393000641C082CEED338BD38B504460020009036
:1039400034B18C48C06A40F400708A49C86205E00E
:103950008848C06A20F400708649C8628548C06AF9
:1039600000904FF6FF70FFF7BBF882490098C862DD
:1039700038BD014600207F4AD26A0A400AB10120C0
:1039800000E00020704738B504460020009034B1B4
:103990007848C06A40F004007649C86205E075487E
:1039A000C06A20F004007349C8627248C06A00907F
:1039B0004FF6FF70FFF794F86E490098C86238BD63
:1039C00038B504460020009034B16A48C06A40F01F
:1039D00002006849C86205E06648C06A20F002003B
:1039E0006449C8626348C06A00904FF6FF70FFF7F1
:1039F00077F860490098C86238BD38B504460020A1
:103A0000009034B15B48C06A40F001005949C86277
:103A100005E05848C06A20F001005649C862554880
:103A2000C06A00904FF6FF70FFF75AF851490098AE
:103A3000C86238BD5048006840F030004D49C1F8B8
:103A4000000170474C48006820F020004949C1F847
:103A500000010846D0F8000140F01000C1F8000154
:103A6000704738B14449096841F00801414AC2F839
:103A7000001106E04049096821F008013D4AC2F8FA
:103A80000011704738B13C49096841F00401394AD6
:103A9000C2F8001106E03849096821F00401354AEE
:103AA000C2F80011704738B13349096821F00201AA
:103AB000304AC2F8001106E02F49096841F00201BE
:103AC0002C4AC2F8001170472B48006840F00100F2
:103AD0002849C1F80001704700F0805292B120F0EF
:103AE000805039B1244A0C3212688243214BC3F80A
:103AF0000C2117E0204A0C32126802431D4BC3F818
:103B00000C210FE039B11C4A103212688243194B64
:103B1000C3F8102106E0184A103212680243154B10
:103B2000C3F8102170470146002001F080526AB1AD
:103B3000114A121D12680A4032B10F4A0C32126843
:103B40000A400AB901200EE000200CE00A4A0832BF
:103B500012680A4032B1084A0C3212680A400AB9A7
:103B6000012000E0002070470146024808587047D5
:103B700000900240008002400081024070B504467F
:103B8000062084F82A009E48007884F82B009C4880
:103B900041782C2001559A4881782D20015598486C
:103BA000C1782E200155964801792F20015594485F
:103BB00041793020015593A0606240F2DC502085AD
:103BC000322084F83100052292499348FFF719FD0D
:103BD000052292499248FFF782FC002507E09049B0
:103BE00001EB45100121FFF799FD681CC5B2052DB9
:103BF000F5DB002508E0884901EB45104FF4400152
:103C0000FFF744FD681CC5B2052DF4DBFFF73BFA56
:103C100070BD014683480068006800F0004008B1AC
:103C200000207047C1F30C007E4A126850607D4846
:103C30000068006840F040507A4A12681060794885
:103C40000068006840F00040764A126810607648CC
:103C5000406900F0040020B10420734A5061002044
:103C6000506070480068C0686E4A10600120D8E754
:103C70006C480068806870472DE9F04180460E4628
:103C80000025FFF7F5FF0746344607E062897819FB
:103C9000616807F0CBFE608905442468002CF5D1EB
:103CA000A8B2FFF7B6FF0020BDE8F0811EB50021E5
:103CB00000220092019202925C4A1268126802F09D
:103CC000004282B100220092574A526902F08002FB
:103CD00022B18022544B5A6100229A609DE81C0058
:103CE00080E81C001EBD514A1268126802F40042AE
:103CF000B2B94E4A1268126802F4807282B14B4A1D
:103D00001268126802F4007252B1484A12681268CE
:103D1000C2F30D42111F454A12689268019200E0F9
:103D200000210091414A12680292404A1268D2680A
:103D30003E4B1A609DE81C0080E81C0000BFD1E7E4
:103D40002DE9F04387B081460026002501A8FFF742
:103D5000ADFF01A807C804AB07C3049887B2DDF81C
:103D6000148003223946104603F077FB054665B1FF
:103D70002C4608E0628908EB0601606807F056FEF1
:103D8000608906442468002CF4D14FF00040069965
:103D900008602548406900F0800020B18020224959
:103DA000486100208860284607B0BDE8F08370B500
:103DB00004462046FFF7C4FF064616B94FF0FF3011
:103DC00070BD214630462269904705461DB13046F8
:103DD00003F0E6FA00262846F2E710B5044600BFD5
:103DE0000CB900BF00BF00BF11A060621248606143
:103DF0001248A0612046FFF7C1FE002010BD000060
:103E00000C0000204368616F5765694469616E5A10
:103E100069000000CC24002068060020080700206C
:103E2000C8050020540000200090024058000020E7
:103E30006C7769700000000047460008793C000874
:103E400010B5044604EB8400F74951F8200060B136
:103E500004EB8401F44A52F8210003F0A1FA002097
:103E600004EB8401F04A42F82100002004EB8401B5
:103E7000ED4A02EB8101887410BD70B500243DE06D
:103E800004EB8400E84901EB8000857C25B304EB5A
:103E9000840001EB8000C07C401C04EB8401E24AFA
:103EA00002EB8101C87404EB8400114601EB800031
:103EB000C07CF0280DDA04EB840001EB8000807CEC
:103EC00001280AD104EB840001EB8000C07C0228A9
:103ED00003DB2046FFF7B4FF0EE004EB8400D24979
:103EE00001EB8000807C032806D1022004EB8401D2
:103EF000CD4A02EB81018874601CC4B20A2CBFDB7E
:103F000070BD2DE9FC5F05460F464FF00A08C1461B
:103F10000A260024A34600200190B246009000BF6C
:103F200062E004EB8400C04A02EB8000817C0A2E30
:103F300002D109B966B255E0002953D000BF01296A
:103F400003D0022901DA00BF00BF00BF5DB104EB5E
:103F50008402B54B03EB820228685268904202D17A
:103F600060B2BDE8FC9F012928D104EB8400AE4A71
:103F700052F8200088B104EB840002EB8000C27C80
:103F8000009882422EDB4FFA84FA04EB8400A64AA2
:103F900002EB8000C07C009024E004EB8400A24A85
:103FA00002EB8000C07C58451CDB4FFA84F804EB20
:103FB000840002EB800090F813B013E0022911DBBB
:103FC00004EB8400984A02EB8000C27C0198824294
:103FD00008DB4FFA84F904EB8400934A02EB80007B
:103FE000C07C0190601CC4B20A2C9ADB07F002006E
:103FF00020B90A2E05D107F0010010B94FF0FF30AB
:10400000AFE70A2E01DAF4B226E0B9F10A0F0BDAB3
:1040100009F0FF0400BF04EB8400834951F820003D
:1040200008B100BF00BF0EE0B8F10A0F02DA08F0D5
:10403000FF0408E0BAF10A0F02DA0AF0FF0402E016
:104040004FF0FF308DE700BF0A2C01DB00BF00BF3F
:1040500000BF2046FFF7F4FE00BF0A2C01DB00BFC3
:1040600000BF00BF00BF04EB84006F4901EB80007C
:10407000807C08B100BF00BF00BF35B104EB8401F4
:10408000694A02EB810128684860002004EB840142
:10409000654A02EB8101C87460B262E72DE9F04124
:1040A00004460E4617469846756800BF94F82A00E5
:1040B000062801D000BF00BF00BFD8F8000028606C
:1040C000B8F80400A8803868C5F80600B888688188
:1040D0000820A88131462046A2699047BDE8F081BA
:1040E0002DE9F04706460D461746984600BF96F85C
:1040F0002A00062801D000BF00BF00BF5DB12868BC
:1041000048B13146286800F061FF20B9287800F0F6
:10411000F000E02803D16FF00D00BDE8F0874146C4
:104120002846FFF7EEFE0446002C01DA2046F4E7AD
:10413000022004EB84013C4A02EB8101887404EB09
:104140008400114601EB8000866004EB840001EBE3
:1041500080003968C160B9880182002004EB8401C5
:1041600002EB8101C87404EB8400114651F8200071
:1041700098B104EB840051F82090002004EB8401F6
:1041800042F821003B4606F12B0249463046FFF734
:1041900085FF484603F004F900BF0020BDE770B575
:1041A0000546002412E004EB84001F4901EB800067
:1041B000867C4EB104EB840001EB80008068A8424D
:1041C00002D12046FFF73CFE601CC4B20A2CEADB99
:1041D00070BD2DE9F04180460F4615461E4600BFD2
:1041E00005B10EB900BF00BF00BF02213846FFF77E
:1041F00088FE0446002C19DB04EB84000A4901EB1D
:104200008000807C022811DB04EB840001EB80003D
:104210000C30286004EB840001EB8000001D30604E
:104220002046BDE8F08100009C4200204FF0FF30A6
:10423000F7E72DE9FC4705468846164600BF1DB93D
:1042400000BF00BFBDE8FC8700BF70892A2803DAE1
:10425000304603F0A5F8F5E7776807F10E042088EB
:10426000B0F5807F08D12079062805D1607904282F
:1042700002D16088082803D0304603F091F8E1E7C6
:10428000D4F80E000190A0690090281D08B168685C
:1042900010B94FF0000907E000986968884201D121
:1042A000012000E000208146B9F1000F01D001207B
:1042B00000E00220034604F1080201A92846FFF7A6
:1042C0000FFFE088B0F5807F03D0B0F5007F37D1D5
:1042D00031E0B9F1000F2CD0022001F06FFBE0803B
:1042E000D4F80E00A0616868C4F80E0000BF95F80D
:1042F0002A00062801D000BF00BF00BFA068C4F894
:104300001200A089E082A0683860A089B880D8F83F
:104310000000A060B8F80400A081D8F80000C7F839
:104320000600B8F80400788131462846AA6990470B
:1043300000E000BF05E001A9284602F068FC00E0AB
:1043400000BF00BF304603F02BF800BF7AE72DE92D
:10435000F84F0746884691469A46DDF828B0002077
:10436000009000BF0FB900BF00BF00BF00222A218C
:10437000032003F072F805461DB94FF0FF30BDE889
:10438000F88F00BF68892A2801DA00BF00BF00BF8C
:104390006E6806F10E040D9801F010FBE08000BF7E
:1043A00097F82A00062801D000BF00BF00BFDAF846
:1043B0000000A060BAF80400A0810B980168C4F85E
:1043C00012108088E082D9F800003060B9F804004B
:1043D000B080D8F80000C6F80600B8F80400708174
:1043E000DBF80000C4F80E000C980068A0614FF4E0
:1043F0008070208008206080062020710420607179
:104400004FF4C160B08129463846BA6990470090A0
:10441000284602F0C5FF00250098B0E77FB50446A6
:104420000D460121FA4A201D04F12B038DE82500D9
:104430000391F84A19462046FFF789FF04B070BD82
:1044400070B505460E46144600BF04EB8400F249E1
:1044500001EB8000807C022801DA00BF00BF00BFB2
:1044600004EB8400EC4901EB8000807C022817D12A
:1044700004EB840001EB8000C07CE42810DB04EB3B
:1044800084000A4602EB8000011D2846FFF7C6FFA4
:1044900030B9032004EB8401DF4A02EB8101887408
:1044A00004EB8400DC4901EB800000F10C0305F112
:1044B0002B0231462846FFF7F1FD70BD2DE9F05F74
:1044C00080460F46164608F12B094FF0FF3A414649
:1044D000386800F07BFD38B9387800F0F000E0284B
:1044E00002D00FB1386818B96FF00D00BDE8F09F29
:1044F00001213846FFF705FD0446002C01DA20466D
:10450000F4E704EB8400C44901EB8000807C30B9FF
:10451000012004EB8401C04A02EB8101887400BFD2
:1045200004EB8400BC4901EB8000807C012808D0AA
:1045300004EB840001EB8000807C022801DA00BFDC
:1045400000BF00BF04EB8400B34901EB8000807C16
:10455000012800D03EB939464046FFF75FFF82464A
:104560000EB95046C2E700BF0EB900BF00BF00BF82
:1045700004EB8400A84901EB8000807C02280FDB5B
:10458000A6490C7004EB8400A34901EB800000F104
:104590000C034A4631464046FFF780FD824650E014
:1045A00004EB84009C4901EB8000807C012848D109
:1045B0004FF0000B354610E000BF6889298988421A
:1045C00003D1286808B100BF00BF00BF287B0128C5
:1045D00002D04FF0010B02E02D68002DECD100BF9E
:1045E000BBF1000F10D029890022032002F035FF13
:1045F00005466DB13146284603F071F940B12846B1
:1046000002F0CEFE002503E03546284603F005F90A
:10461000A5B104EB8400804951F8200030B104EBCF
:1046200084017D4A52F8210002F0BAFE04EB8400B6
:10463000794941F820504FF0000A01E04FF0FF3A6D
:1046400000BF504652E72DE9FC4704460F46154689
:10465000A94600BF0CB900BF00BF00BF00BF0FB923
:1046600000BF00BF00BF00BF0DB900BF00BF00BF4B
:104670000E21384603F082F818B16FF00100BDE852
:10468000FC872146286800F0A1FC10B1DFF8848186
:1046900077E0287800F0F000E02815D101208DF8AF
:1046A000000000208DF801005E208DF8020068787F
:1046B00000F07F008DF80300A8788DF80400E878FA
:1046C0008DF80500E8465BE02868A1680840D4E959
:1046D00001121140884210D0288880B24FF6A9619B
:1046E00088420AD004F10C0020B1E06810B104F156
:1046F0000C0902E06FF00300C1E74848007800EBC6
:104700008000454901EB8000807C022812DB434990
:10471000097801EB8101404A02EB8101D9F80000E0
:104720004968884206D13D48027839462046FFF75D
:1047300087FEA4E700261BE006EB8600364901EB66
:104740008000807C022811DB06EB8601324A02EBF6
:104750008101D9F800004968884207D12F490E70BD
:10476000F2B239462046FFF76BFE88E7701C46B26E
:104770000A2EE1DB3A4649462046FFF79FFE7EE7D8
:1047800000BF434604F12B0239462046FFF786FC62
:1047900075E72DE9F04104460E464FF00E0860899A
:1047A0000E2800DC53E06568AF89287800F001002E
:1047B000B0B12878012809D1687888B9A8785E282E
:1047C0000ED1607B40F01000607309E006221149B1
:1047D000284607F0E0F818B9607B40F008006073E5
:1047E000082F03D0B7F5C16F2CD11EE096F8310029
:1047F00000F0200000B92AE0C8F1000001B2204614
:1048000002F0BCFF60B100BF00BF00BF00BF1EE0F0
:1048100010C200080AC200089C4200206400002068
:104820003146204600F066FA0DE096F8310000F0BF
:10483000200000B90BE0224606F12B013046FFF7BD
:10484000F8FC00E003E000BF0020BDE8F081204656
:1048500002F0A6FD0020F8E72DE9FE4F0446894648
:10486000666830780007870E7942204602F086FF9E
:1048700010B92089042800D2A2E0606890F800A056
:10488000BAF1000F03D0BAF1080F7DD100E092E039
:1048900001257748007800F0F000E02800D10025DD
:1048A00073490868494600F091FB00B1002525B91D
:1048B000204602F075FDBDE8FE8F2089082800D251
:1048C0007EE0204600F0C4F918B1204602F068FDF1
:1048D000F1E72221204602F051FF80B339462046FD
:1048E00002F04CFF20B100BF00BF00BF00BF6BE073
:1048F00021890022022002F0B0FD054605B963E0DF
:1049000000BF698907F10800814201D200BF00BFE2
:1049100000BF2146284602F0E2FF20B100BF00BFE1
:1049200000BF00BF50E06E68784201B2284602F036
:1049300025FF28B100BF00BF00BF00BF44E004E076
:10494000204602F02DFD2C460AE06FF021012046A2
:1049500002F014FF20B100BF00BF00BF00BF33E072
:10496000D4F8048042480068F06042480068306132
:10497000002088F80000A8F80200FF203072002014
:1049800070813946204600E014E002F0F7FE18B1CD
:1049900000BF00BF00BF0CE001200021FF230A463A
:1049A000CDE9010900913249204600F076FA05462A
:1049B00000BF00E000BF00BF204602F0F1FC7AE734
:1049C000204602F0EDFC76E7204602F0E9FC00BF4D
:1049D00071E72DE9FE4306460F469046002224214A
:1049E000012002F03AFD05460DB9BDE8FE8300BF87
:1049F0006889242801D200BF00BF00BFD6F8049008
:104A00006C68277084F801800020A080E0807168C5
:104A10006A6802F108001C2207F008F80020608094
:104A20006989204600F00AF96080D9F80C000290EC
:104A300001200021FF2302AACDE90010284600F042
:104A400096FA284602F0ACFC00BFCEE770B50546EA
:104A50000C46224603212846FFF7BBFF70BD70B508
:104A600005460C4622460B212846FFF7B2FF70BDD3
:104A70007400002070000020F8B505460A462B4659
:104A800000200090002103F0010636B1002A04DD69
:104A900013F8010B8DF80100521E1C4603E034F898
:104AA000027B3944921E012AF9DC002A02DD2078BB
:104AB0008DF80000BDF80000014488B200EB114100
:104AC00088B200EB114126B1C8B2C1F3072747EA0B
:104AD000002188B2F8BD2DE9F05F0746884691466F
:104AE0009A460024A3463D4618E069896868FFF7A6
:104AF000C3FF0444A0B200EB1444688900EBD071FA
:104B00004910A0EB410141B1CBF1010000F0FF0BD6
:104B1000E0B2C4F3072141EA00242D68002DE4D15E
:104B2000BBF1000F04D0E0B2C4F3072141EA002436
:104B3000D8F80060B0B204444FF6FF7000EA1640A7
:104B40000444D9F80060B0B204444FF6FF7000EAA4
:104B500016400444504600F031FF04440A9800F027
:104B60002DFF0444A0B200EB1444A0B200EB1444A7
:104B7000E04380B2BDE8F09F2DE9FF5F81468A46A1
:104B80000F9D0024A3464E4628E0B6F80A80A845AB
:104B900000DDA84641467068FFF76EFF0444A5EBB0
:104BA000080085B200BF47F6FF70854201DB00BFF9
:104BB00000BF00BFA0B200EB1444708900EBD071BD
:104BC0004910A0EB410141B1CBF1010000F0FF0B16
:104BD000E0B2C4F3072141EA002436680EB1002D8B
:104BE000D3DCBBF1000F04D0E0B2C4F3072141EAEB
:104BF0000024DAF80070B8B204444FF6FF7000EAFF
:104C00001740044402980768B8B204444FF6FF7096
:104C100000EA17400444039800F0D0FE04440E98C4
:104C200000F0CCFE0444A0B200EB1444A0B200EBB0
:104C30001444E04380B204B0BDE8F09F70B5044670
:104C40000D4629462046FFF717FFC04380B270BDCE
:104C50002DE9F041064600240027354617E0698912
:104C60006868FFF709FF0444A0B200EB14446889A8
:104C700000EBD0714910A0EB410139B1C7F101003F
:104C8000C7B2E0B2C4F3072141EA00242D68002D29
:104C9000E5D127B1E0B2C4F3072141EA0024E043A3
:104CA00080B2BDE8F081000010B50246C04801683E
:104CB0000FE091F8310000F0010048B110688B68F6
:104CC0001840D1E901342340984201D1084610BD73
:104CD00009680029EDD1B748006830B1B5480068CF
:104CE00090F8310000F0010008B90020EFE7B1486A
:104CF0000068ECE72DE9F05F06460F464FF0010A29
:104D0000756828780421B1EB201F05D0304602F0E9
:104D100047FB0020BDE8F09F287800F00F084FF611
:104D2000FF7000EA8808688800F04EFE81467089AE
:104D3000404502DB3089484504DA304602F030FB5A
:104D40000020E7E74946304602F0C0FC28699A494E
:104D50000860E868994908604FF0010B3C4600BFC5
:104D600094F8310000F0010078B1201D68B160684E
:104D700058B1914800686168884205D08E4908683A
:104D8000214600F023F900B10DE0BBF1000F04D083
:104D90004FF0000B8648046800E02468BC4200D154
:104DA0002468002CDCD100BF64B9687A112809D1CD
:104DB00005EB08004188B1F5884F02D13C464FF021
:104DC000000A00BFBAF1000F14D07C4890B100680F
:104DD00080B17A490868394600F0F8F828B9774870
:104DE000007800F0F000E02804D1304602F0D8FA54
:104DF00000208FE724B9304602F0D2FA002089E77C
:104E0000E8884FF63F71084038B1304600F009FCA1
:104E100006460EB900207DE7756869480760694855
:104E200005603946304602F00BFF58BB687A01280E
:104E30000DD0062806D011280ED13946304606F08E
:104E4000E6F81EE03946304604F089FE19E039469E
:104E50003046FFF701FD14E057490868394600F075
:104E6000B5F850B95448007800F0F000E02804D0BC
:104E7000756002213046FFF7E9FD304602F090FAF6
:104E800000BF00BF00204E4908604E4908604B49F2
:104E900008604949086000BF3CE72DE9F84F054626
:104EA0000F4690469A46DDF828B00C9E00BFE88970
:104EB000012801D000BF00BF00BFB8F1000F40D0F3
:104EC0004FF014091421284602F058FC18B16FF075
:104ED0000100BDE8F88F6C6800BF6889142801D212
:104EE00000BF00BF00BF84F808A00B986072D8F81C
:104EF0000000206148464FEAE97109EB9171C1F366
:104F0000870141F04001217084F801B0288900F048
:104F100055FD60800020E0802B48008800F04EFDA9
:104F2000A08029480088401C274908800FB13868B4
:104F300010B97068E06001E03868E06000206081CE
:104F400003E06C6820690090E846308D48B12889FC
:104F5000318D884205DD42463146284600F04FFC3F
:104F6000B7E742462946304673699847B1E72DE9CD
:104F7000FE4F05460F4616469846DDE90C9A00BFDF
:104F8000E889012801D000BF00BF00BF3046FFF70D
:104F90008BFE040002D1001FBDE8FE8F434632465F
:104FA00039462846CDE9009A0294FFF776FFF3E7E9
:104FB0009400002098000020740000207000002061
:104FC000680000206C0000207800002018B5024620
:104FD0000092D04300B10AB9012018BD91F8310008
:104FE00000F0020008B90020F7E74868904201D1BC
:104FF0000020F2E700988B681840D1E90134234083
:10500000984208D1886822EA00008C68E3439842FD
:1050100001D10120E1E70020DFE770B50646304608
:1050200000F0D8FC05464FF0004404E005EA040017
:1050300000B902E06408002CF8D100BF05E005EAE1
:10504000040008B1002070BD6408002CF7D10120D5
:10505000F9E72DE9FF47064688466F46347800BFDA
:10506000302C01DB392C03DD002004B0BDE8F087D3
:1050700000254FF00A09302C0ED1701C064604782A
:10508000782C01D0582C05D14FF01009701C064621
:10509000047801E04FF0080900BF302C09DB392CFF
:1050A00007DCA4F1300005FB0905701C06460478F6
:1050B000F3E7B9F1100F1BD1302C01DB392C07DDE0
:1050C000612C01DB662C03DD412C11DB462C0FDC4F
:1050D000612C03DB7A2C01DC612100E0412104F129
:1050E0000A00401A40EA0515701C06460478D4E709
:1050F00000BF00BF2E2C09D103A8874201D3002096
:10510000B3E720C7701C06460478A9E700BF00BFBC
:105110006CB1202C0BD00C2C09D00A2C07D00D2CF4
:1051200005D0092C03D00B2C01D000209DE7684648
:10513000381A012101EBA00005282AD2DFE800F08F
:105140000305060F1B0000208FE727E0B5F1807FE5
:1051500001D3002089E7009845EA00651EE0B5F517
:10516000803F01D3002080E700980006019940EAC3
:105170000140054312E0FF2D01D9002075E700989A
:105180000006019940EA0140029940EA01200543E6
:1051900004E000BF00BF00BF00BF00BF00BFB8F108
:1051A000000F04D0284600F015FCC8F800000120CC
:1051B0005BE738B5044669462046FFF74AFF08B169
:1051C000009838BD4FF0FF30FBE72DE9FC4706465D
:1051D0000B4614464FF0000C30680190194601AAA6
:1051E00000273CE0002500BF10784FF00A0990FB33
:1051F000F9FA09FB1A0000F0FF08107890FBF9F0AB
:10520000107008F1300000F0FF0A284605F101098E
:1052100009F0FF050DF800A010780028E4D10BE09C
:1052200060460CF1010CA04202DB0020BDE8FC87C7
:105230001DF8050001F8010B2800A5F1010909F08E
:10524000FF05EDD160460CF1010CA04201DB00200E
:10525000ECE72E2001F8010B521C781CC7B2042F7A
:10526000C0DB4FF00009481E014680F80090184648
:10527000DCE710B50446102202492046FFF7A5FFDF
:1052800010BD00006443002070B504460D46FE4882
:105290000068A04203D1FC492068086006E000BF16
:1052A0000DB900BF00BF00BF20682860214605205F
:1052B00001F014FF70BD2DE9F04704468846002533
:1052C00000BFA04501D100BF00BF00BFB8F1000F73
:1052D00007D000BFD8F80000A04201D000BF00BF37
:1052E00000BF6068D0F80490B9F80400F0B96768AE
:1052F000D9F800006060142204F10801786806F013
:1053000095FB01213846FFF7AAFB384602F07CFAEC
:10531000064600BFA819B0F5803F01DB00BF00BF03
:1053200000BFA81985B2384602F03AF8676816E05F
:10533000D7F80490BA46D9F80070504602F064FAE3
:10534000064600BFA819B0F5803F01DB00BF00BFD3
:1053500000BFA81985B2504602F022F800BF002F06
:10536000E6D141462046FFF78FFF00BFC7480088BF
:10537000A84201DA00BF00BF00BFC4480088401B3C
:10538000C24908802846BDE8F08770B50025BE48B0
:1053900004680FE0E07F002805DDE07F401EE07735
:1053A0002546246806E02646246829463046FFF74D
:1053B00082FF00BF002CEDD170BD2DE9F05F0546E6
:1053C0008946002700BF0026B346B246AE480468AF
:1053D0001DE06069E968884207D1A06929698842AF
:1053E00003D1A089A988884201D0012000E00020D3
:1053F00048B10AF1010A0EB9264604E0E07FF17FC8
:10540000884200DC2646206800B1A3462468002CB0
:10541000DFD12EB159463046FFF74DFF8046474455
:105420004F4502DABAF1010FCDDC3846BDE8F09FF6
:1054300070B505460E46052001F035FE044664B9F8
:1054400031462846FFF7B9FFB04203DB052001F0E3
:105450002AFE04460CB9002070BD2021204606F02B
:105460004CFB0320E0778848006820608648046091
:105470001422294604F1080006F0D8FA2046EBE78A
:105480002DE9FC5F06460F4600254FF0010BD7F8CB
:1054900004A0BAF8020000F097FA9AF8001001F0A0
:1054A0000F01A0EB810080B20090BAF8060000F076
:1054B0008BFAC0F30C004FF6FF7101EAC0000190B7
:1054C00000BF00BF7C68002020600198A080DDE95B
:1054D00000100844E080D6F804902EE0D9F804804B
:1054E000A088B8F80410884210DAC4F800905DB1C2
:1054F000A088E988884204DBE088B8F80410884274
:1055000000DD81E02F6000E0776019E0A088B8F846
:105510000410884200D177E0A088B8F806108842CD
:1055200000DA71E035B1E888B8F80410884201D09B
:105530004FF0000BD8F800904546B9F1000FCDD1DF
:1055400000BFB9F1000F17D17DB100BFE888A18875
:10555000884201DD00BF00BF00BF2F60E888A1883E
:10556000884209D04FF0000B06E000BF706808B118
:1055700000BF00BF00BF7760B07F00F00100E8B35C
:10558000BBF1000F39D070684068808810B14FF0CF
:10559000000B32E02546D4F800900BE0D9F8044027
:1055A000E888A188884202D04FF0000B05E025462C
:1055B000D4F80090B9F1000FF0D100BFBBF1000F9B
:1055C0001BD000BF706808B900BF00BF00BF00BF9C
:1055D00070684068A04201D100BF00BF00BF00BF9B
:1055E000206808B100BF00BF00BF00BFE088B18BDA
:1055F000884201D000BF00BF00BF00E002E0584673
:10560000BDE8FC9F0020FBE7384602F0FDF81F498B
:105610000988081A1D490880384601F0C1FE00209B
:10562000EEE72DE9F84F804600200090D8F80450AE
:10563000287800F00F001421B1EB800F00D0B1E00A
:10564000E88800F0C1F9C0F30C004FF6FF7101EAE1
:10565000C00A688800F0B8F9297801F00F01A0EBC2
:1056600081001FFA80FB404602F0CEF8064607484C
:10567000018888190A280FDD31462846FFF79DFE6C
:1056800048B10248008803E07C0000208000002030
:1056900030440A2800DD85E0C548046812E06069EE
:1056A000E968884209D1A0692969884205D1A089A1
:1056B000A988884201D1012000E0002000B103E068
:1056C00000942468002CEAD100BF34B93146284642
:1056D000FFF7AEFE044694B964E0E88800F074F980
:1056E000C0F30C0058B9E08900F06EF9C0F30C006B
:1056F00028B11422294604F1080006F097F9AD48B4
:1057000000883044AB490880A87900F0200030B907
:10571000A07F40F00100A0770AEB0B00A083414678
:105720002046FFF7ADFED0B3A08B1430A083606895
:105730004068076860684568142204F1080128463B
:1057400006F074F9A08B00F039F968800020E88039
:10575000688114212846FFF771FA6881D4F8048023
:105760000CE0D7F804906FF01301384602F006F809
:105770003946404602F056F8D9F80070002FF0D1B3
:1057800020460099FFF780FD404602F03DF8894928
:105790000988081A874908804046BDE8F88FFFE766
:1057A0000020FAE7404601F0FBFD0020F5E710B5C8
:1057B000062001F078FC10BD10B5044600BF0CB9FE
:1057C00000BF00BF00BF2146062001F087FC10BDCE
:1057D00070B505462C4600BF0CB900BF00BF00BF26
:1057E00000BFAC4201D000BF00BF00BF606910B174
:1057F000606901F0D5FD2046FFF7DEFF70BD2DE9A1
:10580000F74F8CB004468946B9F828000890142058
:1058100004904FF0000860680B900B9EF08800F039
:10582000D3F803900398C0F30C000790039800F49A
:10583000005006902089143880B209900899A1F18F
:105840001400C11700EB5171C1F3CF010A91A9E017
:10585000089814380999884201DB012000E00020F3
:1058600005900798C0F30C0006990843039005982B
:1058700018B9039840F400500390059808B10998AE
:1058800001E00A98C0001FFA80FB002214210220C8
:1058900001F0E3FD054625B94FF0FF300FB0BDE83C
:1058A000F08F00BF6089142801DA00BF00BF00BF7D
:1058B000142268680B9906F0B9F86E68616804985C
:1058C0000844606061890498081A6081CDF808B0C6
:1058D0003FE061890298814201DD029800E0608921
:1058E0008046B8F1000F01D1246832E0FFF75FFF76
:1058F00007462FB9284601F053FD4FF0FF30CDE7A2
:1059000060683B4602224146CDE90008032001F0D1
:10591000A5FE8246BAF1000F08D13846FFF74CFFCA
:10592000284601F03DFD4FF0FF30B7E7204601F07B
:1059300074FF7C61204838615146284601F072FFAF
:105940000298A0EB080080B20290029800B124688F
:1059500000BF02980028BCD1CDF81080039800F059
:105960002DF8F0800BF1140188B200F027F8708058
:105970000020708114213046FFF760F97081D9F85A
:105980001430294648460E9A9847284601F008FDEB
:105990000998A0EB0B0080B209900A990798084477
:1059A00080B20790099800287FF452AF00BF75E7D6
:1059B0007C00002080000020D15700080146080626
:1059C000000C40EA1120704700B502461046FFF770
:1059D000F5FF00BD0146080601F47F4240EA0220BF
:1059E00001F47F0240EA122040EA1160704700B5DE
:1059F00003461846FFF7EEFF00BD000010B5044651
:105A000000BF14B900BF00BF10BD00BF00BF2069B8
:105A100008B900BF00BF00BF00BF606908B900BF80
:105A200000BF00BF206910B1206901F0B9FC00205F
:105A30002061606100BFE7E700BF10B900BF00BF91
:105A4000704700BF00BF416909B900BF00BF00BF78
:105A500000BF018B442901D300BF00BF00BFFF225C
:105A6000038B591C01834169F031CA5406E00022BE
:105A7000038B591C01834169F031CA54018B4429BD
:105A800003D3017E01F0030111B1018B4429EED350
:105A900000BFD5E700BF028B442A01D300BF00BF7F
:105AA00000BF038B5A1C02834269F032D154704705
:105AB00010B500BF038B9B1C1344442B01D900BFBE
:105AC00000BF00BF048B631C03834369F033195587
:105AD000048B631C03834369F0331A5510BD10B562
